{
  "contractName": "Marketplace",
  "abi": [
    {
      "inputs": [],
      "stateMutability": "nonpayable",
      "type": "constructor"
    },
    {
      "anonymous": false,
      "inputs": [
        {
          "indexed": false,
          "internalType": "uint256",
          "name": "id",
          "type": "uint256"
        },
        {
          "indexed": false,
          "internalType": "string",
          "name": "name",
          "type": "string"
        },
        {
          "indexed": false,
          "internalType": "string",
          "name": "carac",
          "type": "string"
        },
        {
          "indexed": false,
          "internalType": "uint256",
          "name": "price",
          "type": "uint256"
        },
        {
          "indexed": false,
          "internalType": "address",
          "name": "owner",
          "type": "address"
        },
        {
          "indexed": false,
          "internalType": "bool",
          "name": "purchased",
          "type": "bool"
        }
      ],
      "name": "ProductCreated",
      "type": "event"
    },
    {
      "anonymous": false,
      "inputs": [
        {
          "indexed": false,
          "internalType": "uint256",
          "name": "id",
          "type": "uint256"
        },
        {
          "indexed": false,
          "internalType": "string",
          "name": "name",
          "type": "string"
        },
        {
          "indexed": false,
          "internalType": "string",
          "name": "carac",
          "type": "string"
        },
        {
          "indexed": false,
          "internalType": "uint256",
          "name": "price",
          "type": "uint256"
        },
        {
          "indexed": false,
          "internalType": "address",
          "name": "owner",
          "type": "address"
        },
        {
          "indexed": false,
          "internalType": "bool",
          "name": "purchased",
          "type": "bool"
        }
      ],
      "name": "ProductPurchased",
      "type": "event"
    },
    {
      "inputs": [],
      "name": "name",
      "outputs": [
        {
          "internalType": "string",
          "name": "",
          "type": "string"
        }
      ],
      "stateMutability": "view",
      "type": "function",
      "constant": true
    },
    {
      "inputs": [],
      "name": "productCount",
      "outputs": [
        {
          "internalType": "uint256",
          "name": "",
          "type": "uint256"
        }
      ],
      "stateMutability": "view",
      "type": "function",
      "constant": true
    },
    {
      "inputs": [
        {
          "internalType": "uint256",
          "name": "",
          "type": "uint256"
        }
      ],
      "name": "products",
      "outputs": [
        {
          "internalType": "uint256",
          "name": "id",
          "type": "uint256"
        },
        {
          "internalType": "string",
          "name": "name",
          "type": "string"
        },
        {
          "internalType": "string",
          "name": "carac",
          "type": "string"
        },
        {
          "internalType": "uint256",
          "name": "price",
          "type": "uint256"
        },
        {
          "internalType": "address",
          "name": "owner",
          "type": "address"
        },
        {
          "internalType": "bool",
          "name": "purchased",
          "type": "bool"
        }
      ],
      "stateMutability": "view",
      "type": "function",
      "constant": true
    },
    {
      "inputs": [
        {
          "internalType": "string",
          "name": "_name",
          "type": "string"
        },
        {
          "internalType": "string",
          "name": "_carac",
          "type": "string"
        },
        {
          "internalType": "uint256",
          "name": "_price",
          "type": "uint256"
        }
      ],
      "name": "createProduct",
      "outputs": [],
      "stateMutability": "nonpayable",
      "type": "function"
    },
    {
      "inputs": [
        {
          "internalType": "uint256",
          "name": "_id",
          "type": "uint256"
        }
      ],
      "name": "purchaseProduct",
      "outputs": [],
      "stateMutability": "payable",
      "type": "function",
      "payable": true
    }
  ],
  "bytecode": "0x608060405260006001553480156200001657600080fd5b506040518060400160405280601081526020017f64417070204d61726b6574706c61636500000000000000000000000000000000815250600090816200005d9190620002de565b50620003c5565b600081519050919050565b7f4e487b7100000000000000000000000000000000000000000000000000000000600052604160045260246000fd5b7f4e487b7100000000000000000000000000000000000000000000000000000000600052602260045260246000fd5b60006002820490506001821680620000e657607f821691505b602082108103620000fc57620000fb6200009e565b5b50919050565b60008190508160005260206000209050919050565b60006020601f8301049050919050565b600082821b905092915050565b600060088302620001667fffffffffffffffffffffffffffffffffffffffffffffffffffffffffffffffff8262000127565b62000172868362000127565b95508019841693508086168417925050509392505050565b6000819050919050565b6000819050919050565b6000620001bf620001b9620001b3846200018a565b62000194565b6200018a565b9050919050565b6000819050919050565b620001db836200019e565b620001f3620001ea82620001c6565b84845462000134565b825550505050565b600090565b6200020a620001fb565b62000217818484620001d0565b505050565b5b818110156200023f576200023360008262000200565b6001810190506200021d565b5050565b601f8211156200028e57620002588162000102565b620002638462000117565b8101602085101562000273578190505b6200028b620002828562000117565b8301826200021c565b50505b505050565b600082821c905092915050565b6000620002b36000198460080262000293565b1980831691505092915050565b6000620002ce8383620002a0565b9150826002028217905092915050565b620002e98262000064565b67ffffffffffffffff8111156200030557620003046200006f565b5b620003118254620000cd565b6200031e82828562000243565b600060209050601f83116001811462000356576000841562000341578287015190505b6200034d8582620002c0565b865550620003bd565b601f198416620003668662000102565b60005b82811015620003905784890151825560018201915060208501945060208101905062000369565b86831015620003b05784890151620003ac601f891682620002a0565b8355505b6001600288020188555050505b505050505050565b61102e80620003d56000396000f3fe60806040526004361061004a5760003560e01c806306fdde031461004f57806338e76a031461007a5780637acc0b2014610096578063a1422209146100d8578063e0f6ef8714610101575b600080fd5b34801561005b57600080fd5b5061006461012c565b6040516100719190610955565b60405180910390f35b610094600480360381019061008f91906109c1565b6101ba565b005b3480156100a257600080fd5b506100bd60048036038101906100b891906109c1565b6105ac565b6040516100cf96959493929190610a59565b60405180910390f35b3480156100e457600080fd5b506100ff60048036038101906100fa9190610bfd565b610725565b005b34801561010d57600080fd5b506101166108b6565b6040516101239190610c88565b60405180910390f35b6000805461013990610cd2565b80601f016020809104026020016040519081016040528092919081815260200182805461016590610cd2565b80156101b25780601f10610187576101008083540402835291602001916101b2565b820191906000526020600020905b81548152906001019060200180831161019557829003601f168201915b505050505081565b6000600260008381526020019081526020016000206040518060c0016040529081600082015481526020016001820180546101f490610cd2565b80601f016020809104026020016040519081016040528092919081815260200182805461022090610cd2565b801561026d5780601f106102425761010080835404028352916020019161026d565b820191906000526020600020905b81548152906001019060200180831161025057829003601f168201915b5050505050815260200160028201805461028690610cd2565b80601f01602080910402602001604051908101604052809291908181526020018280546102b290610cd2565b80156102ff5780601f106102d4576101008083540402835291602001916102ff565b820191906000526020600020905b8154815290600101906020018083116102e257829003601f168201915b50505050508152602001600382015481526020016004820160009054906101000a900473ffffffffffffffffffffffffffffffffffffffff1673ffffffffffffffffffffffffffffffffffffffff1673ffffffffffffffffffffffffffffffffffffffff1681526020016004820160149054906101000a900460ff1615151515815250509050600081608001519050600082600001511180156103a85750600154826000015111155b6103b157600080fd5b81606001513410156103c257600080fd5b8160a00151156103d157600080fd5b3373ffffffffffffffffffffffffffffffffffffffff168173ffffffffffffffffffffffffffffffffffffffff160361040957600080fd5b33826080019073ffffffffffffffffffffffffffffffffffffffff16908173ffffffffffffffffffffffffffffffffffffffff168152505060018260a001901515908115158152505081600260008581526020019081526020016000206000820151816000015560208201518160010190816104859190610eaf565b50604082015181600201908161049b9190610eaf565b506060820151816003015560808201518160040160006101000a81548173ffffffffffffffffffffffffffffffffffffffff021916908373ffffffffffffffffffffffffffffffffffffffff16021790555060a08201518160040160146101000a81548160ff0219169083151502179055509050508073ffffffffffffffffffffffffffffffffffffffff166108fc349081150290604051600060405180830381858888f19350505050158015610556573d6000803e3d6000fd5b507f5670f88139d28601bfe12c4f5db1a8220966f1b2c6f5c1b3e9731748c12bef6460015483602001518460400151856060015133600160405161059f96959493929190610a59565b60405180910390a1505050565b60026020528060005260406000206000915090508060000154908060010180546105d590610cd2565b80601f016020809104026020016040519081016040528092919081815260200182805461060190610cd2565b801561064e5780601f106106235761010080835404028352916020019161064e565b820191906000526020600020905b81548152906001019060200180831161063157829003601f168201915b50505050509080600201805461066390610cd2565b80601f016020809104026020016040519081016040528092919081815260200182805461068f90610cd2565b80156106dc5780601f106106b1576101008083540402835291602001916106dc565b820191906000526020600020905b8154815290600101906020018083116106bf57829003601f168201915b5050505050908060030154908060040160009054906101000a900473ffffffffffffffffffffffffffffffffffffffff16908060040160149054906101000a900460ff16905086565b600083511161073357600080fd5b600182511161074157600080fd5b6000811161074e57600080fd5b6001600081548092919061076190610fb0565b91905055506040518060c0016040528060015481526020018481526020018381526020018281526020013373ffffffffffffffffffffffffffffffffffffffff168152602001600015158152506002600060015481526020019081526020016000206000820151816000015560208201518160010190816107e29190610eaf565b5060408201518160020190816107f89190610eaf565b506060820151816003015560808201518160040160006101000a81548173ffffffffffffffffffffffffffffffffffffffff021916908373ffffffffffffffffffffffffffffffffffffffff16021790555060a08201518160040160146101000a81548160ff0219169083151502179055509050507f63a99101901c72cb03a9e6f1cbaeda2eb16085ea58e490c2ecf7835160b16eb26001548484843360006040516108a996959493929190610a59565b60405180910390a1505050565b60015481565b600081519050919050565b600082825260208201905092915050565b60005b838110156108f65780820151818401526020810190506108db565b83811115610905576000848401525b50505050565b6000601f19601f8301169050919050565b6000610927826108bc565b61093181856108c7565b93506109418185602086016108d8565b61094a8161090b565b840191505092915050565b6000602082019050818103600083015261096f818461091c565b905092915050565b6000604051905090565b600080fd5b600080fd5b6000819050919050565b61099e8161098b565b81146109a957600080fd5b50565b6000813590506109bb81610995565b92915050565b6000602082840312156109d7576109d6610981565b5b60006109e5848285016109ac565b91505092915050565b6109f78161098b565b82525050565b600073ffffffffffffffffffffffffffffffffffffffff82169050919050565b6000610a28826109fd565b9050919050565b610a3881610a1d565b82525050565b60008115159050919050565b610a5381610a3e565b82525050565b600060c082019050610a6e60008301896109ee565b8181036020830152610a80818861091c565b90508181036040830152610a94818761091c565b9050610aa360608301866109ee565b610ab06080830185610a2f565b610abd60a0830184610a4a565b979650505050505050565b600080fd5b600080fd5b7f4e487b7100000000000000000000000000000000000000000000000000000000600052604160045260246000fd5b610b0a8261090b565b810181811067ffffffffffffffff82111715610b2957610b28610ad2565b5b80604052505050565b6000610b3c610977565b9050610b488282610b01565b919050565b600067ffffffffffffffff821115610b6857610b67610ad2565b5b610b718261090b565b9050602081019050919050565b82818337600083830152505050565b6000610ba0610b9b84610b4d565b610b32565b905082815260208101848484011115610bbc57610bbb610acd565b5b610bc7848285610b7e565b509392505050565b600082601f830112610be457610be3610ac8565b5b8135610bf4848260208601610b8d565b91505092915050565b600080600060608486031215610c1657610c15610981565b5b600084013567ffffffffffffffff811115610c3457610c33610986565b5b610c4086828701610bcf565b935050602084013567ffffffffffffffff811115610c6157610c60610986565b5b610c6d86828701610bcf565b9250506040610c7e868287016109ac565b9150509250925092565b6000602082019050610c9d60008301846109ee565b92915050565b7f4e487b7100000000000000000000000000000000000000000000000000000000600052602260045260246000fd5b60006002820490506001821680610cea57607f821691505b602082108103610cfd57610cfc610ca3565b5b50919050565b60008190508160005260206000209050919050565b60006020601f8301049050919050565b600082821b905092915050565b600060088302610d657fffffffffffffffffffffffffffffffffffffffffffffffffffffffffffffffff82610d28565b610d6f8683610d28565b95508019841693508086168417925050509392505050565b6000819050919050565b6000610dac610da7610da28461098b565b610d87565b61098b565b9050919050565b6000819050919050565b610dc683610d91565b610dda610dd282610db3565b848454610d35565b825550505050565b600090565b610def610de2565b610dfa818484610dbd565b505050565b5b81811015610e1e57610e13600082610de7565b600181019050610e00565b5050565b601f821115610e6357610e3481610d03565b610e3d84610d18565b81016020851015610e4c578190505b610e60610e5885610d18565b830182610dff565b50505b505050565b600082821c905092915050565b6000610e8660001984600802610e68565b1980831691505092915050565b6000610e9f8383610e75565b9150826002028217905092915050565b610eb8826108bc565b67ffffffffffffffff811115610ed157610ed0610ad2565b5b610edb8254610cd2565b610ee6828285610e22565b600060209050601f831160018114610f195760008415610f07578287015190505b610f118582610e93565b865550610f79565b601f198416610f2786610d03565b60005b82811015610f4f57848901518255600182019150602085019450602081019050610f2a565b86831015610f6c5784890151610f68601f891682610e75565b8355505b6001600288020188555050505b505050505050565b7f4e487b7100000000000000000000000000000000000000000000000000000000600052601160045260246000fd5b6000610fbb8261098b565b91507fffffffffffffffffffffffffffffffffffffffffffffffffffffffffffffffff8203610fed57610fec610f81565b5b60018201905091905056fea2646970667358221220642f2a0f4b96cf6834aa33b6370300b76bd0d77953eea458bdf619a09583b67f64736f6c634300080f0033",
  "immutableReferences": {},
  "source": "pragma solidity ^0.8.0;\r\ncontract Marketplace {\r\n    string public name;\r\n    uint public productCount = 0;\r\n    mapping(uint => Product) public products;\r\n    struct Product {\r\n        uint id;\r\n        string name;\r\n        string carac;\r\n        uint price;\r\n        address owner;\r\n        bool purchased;\r\n    }\r\n    event ProductCreated(\r\n        uint id,\r\n        string name,\r\n        string carac,\r\n        uint price,\r\n        address owner,\r\n        bool purchased\r\n    );\r\n    event ProductPurchased(\r\n        uint id,\r\n        string name,\r\n        string carac,\r\n        uint price,\r\n        address owner,\r\n        bool purchased\r\n    );\r\n    constructor() public {\r\n        name = \"dApp Marketplace\";\r\n    }\r\n    function createProduct(string memory _name, string memory _carac, uint _price) public {\r\n        // Require a valid name\r\n        require(bytes(_name).length > 0);\r\n        require(bytes(_carac).length > 1);\r\n        // Require a valid price\r\n        require(_price > 0);\r\n        // Increment product count\r\n        productCount ++;\r\n        // Create the product\r\n        products[productCount] = Product(productCount, _name, _carac, _price, msg.sender, false);\r\n        // Trigger an event\r\n        emit ProductCreated(productCount, _name, _carac, _price, msg.sender, false);\r\n    }\r\n\r\n    function purchaseProduct(uint _id) public payable {\r\n        // Buscar producto seleccionado\r\n        Product memory _product = products[_id];\r\n        // Buscar propietario del producto\r\n        address _seller = _product.owner;\r\n        // Asegurarse que el producto tiene un ID valido\r\n        require(_product.id > 0 && _product.id <= productCount);\r\n        // Comprobante de que el usuario dispone del ETH necesario\r\n        require(msg.value >= _product.price);\r\n        // Comprobante de que el producto an no ha sido comprado\r\n        require(!_product.purchased);\r\n        // Comprobante de que el comprador no es el propio vendedor del producto\r\n        require(_seller != msg.sender);\r\n        // Tranferencia de la propiedad al comprador\r\n        _product.owner = msg.sender;\r\n        // Marcaje como vendido\r\n        _product.purchased = true;\r\n        // Actualizacin del producto\r\n        products[_id] = _product;\r\n        // Pago al vendedor con el ETH correspondiente\r\n        payable(_seller).transfer(msg.value);\r\n        // Disparador del evento\r\n        emit ProductPurchased(productCount, _product.name, _product.carac, _product.price, msg.sender, true);\r\n    }\r\n\r\n}",
  "sourcePath": "C:\\Users\\luis.ucelay\\Desktop\\TFG\\MarketPlace\\marketplace\\src\\contracts\\Marketplace.sol",
  "compiler": {
    "name": "solc",
    "version": "0.8.15+commit.e14f2714.Emscripten.clang"
  },
  "schemaVersion": "3.4.6",
  "updatedAt": "2022-07-14T22:13:18.102Z",
  "networkType": "ethereum",
  "devdoc": {
    "kind": "dev",
    "methods": {},
    "version": 1
  },
  "userdoc": {
    "kind": "user",
    "methods": {},
    "version": 1
  }
}